:100000000C942A000C941D010C943C000C943C00B0
:100010000C943C000C943C000C943C000C943C0070
:100020000C943C000C943C000C943C000C943C0060
:100030000C943C000C943C000C943C000C943C0050
:100040000C943C000C943C000C943C000C943C0040
:100050000C943C0011241FBECFE5D8E0DEBFCDBF1D
:1000600020E0A0E6B0E001C01D92A236B207E1F7A1
:100070000E9416010C9458030C94000040E064E4C4
:1000800082E00E949B0141E061E480E00E949B01CC
:1000900041E061E481E00E949B0141E061E482E093
:1000A0000E949B0141E062E480E00E949B0141E0EC
:1000B00062E481E00E949B0141E062E482E00E94F0
:1000C0009B010895789485B7836085BF8BB7806462
:1000D0008BBF13BE12BE83B7816083BF60E081E433
:1000E0000E94020162E082E40E94020183B7816003
:1000F00083BF20E030E008C008B600FEFDCF88B71F
:10010000816088BF2F5F3F4F2C348CE43807A0F309
:1001100012BE60E081E40E94090162E082E40E9474
:100120000901C0E0D0E019C061E081E40E94100143
:1001300061E082E40E94100120E030E008C008B6CF
:1001400000FEFDCF88B7816088BF2F5F3F4F283EFC
:1001500083E03807A4F312BE2196C431D10520F301
:1001600012BE61E081E40E94090161E082E40E9424
:10017000090162E081E40E94020160E082E40E94E1
:10018000020120E030E008C008B600FEFDCF88B7CD
:10019000816088BF2F5F3F4F2C348CE43807A0F379
:1001A00012BE62E081E40E94090160E082E40E94E4
:1001B0000901C0E0D0E019C061E081E40E941001B3
:1001C00061E082E40E94100120E030E008C008B63F
:1001D00000FEFDCF88B7816088BF2F5F3F4F283E6C
:1001E00083E03807A4F312BE2196C431D10520F371
:1001F00012BE61E081E40E94090161E082E40E9494
:1002000009016CCF982F862F41E0692F0E9465026B
:100210000895982F862F40E0692F0E946502089567
:10022000982F862F692F0E94260208950E943E0073
:100230000E94620080E090E008951F920F920FB636
:100240000F9211242F933F934F935F936F937F935C
:100250008F939F93AF93BF93CF93DF93EF93FF93CE
:1002600040E650E061E480E00E94F002809160008E
:100270009091610081309105A1F483B7816083BFC3
:1002800020E030E008C008B600FEFDCF88B78160EE
:1002900088BF2F5F3F4F2C348CE43807A4F312BE85
:1002A00037C0892BA9F561E081E40E94090162E071
:1002B00081E40E94090161E082E40E94090160E09A
:1002C00082E40E940901C0E0D0E019C061E081E44D
:1002D0000E94100161E082E40E94100120E030E001
:1002E00008C008B600FEFDCF88B7816088BF2F5FC9
:1002F0003F4F283E83E03807A4F312BE2196C43155
:10030000D10524F312BE8BB78F7B8BBF0E94620096
:10031000FF91EF91DF91CF91BF91AF919F918F911D
:100320007F916F915F914F913F912F910F900FBEF1
:100330000F901F901895623459F118F4613441F010
:100340000895633409F444C0643409F460C0089526
:1003500041110EC04AB321E030E0B90102C0660F7E
:10036000771F8A95E2F7CB01809584238ABB089595
:10037000413009F06AC04AB321E030E0B90102C05F
:10038000660F771F8A95E2F7CB01842B8ABB08950D
:1003900041110EC047B321E030E0B90102C0660F41
:1003A000771F8A95E2F7CB018095842387BB089558
:1003B000413009F04AC047B321E030E0B90102C042
:1003C000660F771F8A95E2F7CB01842B87BB0895D0
:1003D00041110EC044B321E030E0B90102C0660F04
:1003E000771F8A95E2F7CB018095842384BB08951B
:1003F000413059F544B321E030E0B90102C0660F45
:10040000771F8A95E2F7CB01842B84BB08954111B5
:100410000EC041B321E030E0B90102C0660F771F82
:100420008A95E2F7CB018095842381BB0895413002
:1004300061F441B321E030E0B90102C0660F771FDB
:100440008A95E2F7CB01842B81BB08956234B1F029
:1004500018F4613431F008956334E9F0643441F103
:1004600008954BB321E030E0B90102C0660F771F59
:100470008A95E2F7CB0184278BBB089548B321E02E
:1004800030E0B90102C0660F771F8A95E2F7CB0111
:10049000842788BB089545B321E030E0B90102C04C
:1004A000660F771F8A95E2F7CB01842785BB0895F5
:1004B00042B321E030E0B90102C0660F771F8A9590
:1004C000E2F7CB01842782BB0895623459F118F416
:1004D000613441F00895633409F444C0643409F48C
:1004E00060C0089541110EC04BB321E030E0B90166
:1004F00002C0660F771F8A95E2F7CB0180958423AF
:100500008BBB0895413009F06AC04BB321E030E065
:10051000B90102C0660F771F8A95E2F7CB01842BE1
:100520008BBB089541110EC048B321E030E0B90102
:1005300002C0660F771F8A95E2F7CB01809584236E
:1005400088BB0895413009F04AC048B321E030E04B
:10055000B90102C0660F771F8A95E2F7CB01842BA1
:1005600088BB089541110EC045B321E030E0B901C8
:1005700002C0660F771F8A95E2F7CB01809584232E
:1005800085BB0895413059F545B321E030E0B9010C
:1005900002C0660F771F8A95E2F7CB01842B85BBDB
:1005A000089541110EC042B321E030E0B90102C00C
:1005B000660F771F8A95E2F7CB018095842382BB73
:1005C0000895413061F442B321E030E0B90102C046
:1005D000660F771F8A95E2F7CB01842B82BB0895C3
:1005E000623409F118F4613439F00895633491F1FB
:1005F000643409F446C0089599B321E030E0B901AC
:10060000082E02C0660F771F0A94E2F7292F30E008
:1006100026233723B90102C0759567958A95E2F7BD
:10062000FA016083089596B321E030E0B901082E05
:1006300002C0660F771F0A94E2F7292F30E02623C5
:100640003723B90102C0759567958A95E2F7FA01DB
:100650006083089593B321E030E0B901082E02C011
:10066000660F771F0A94E2F7292F30E026233723FD
:10067000B90102C0759567958A95E2F7FA01608322
:10068000089590B321E030E0B901082E02C0660F52
:10069000771F0A94E2F7292F30E026233723B90188
:1006A00002C0759567958A95E2F7FA01608308950F
:0406B000F894FFCFEC
:00000001FF
